{
  "contractName": "Poster",
  "abi": [
    {
      "inputs": [],
      "stateMutability": "nonpayable",
      "type": "constructor"
    },
    {
      "anonymous": false,
      "inputs": [
        {
          "indexed": true,
          "internalType": "address",
          "name": "owner",
          "type": "address"
        },
        {
          "indexed": true,
          "internalType": "address",
          "name": "approved",
          "type": "address"
        },
        {
          "indexed": true,
          "internalType": "uint256",
          "name": "tokenId",
          "type": "uint256"
        }
      ],
      "name": "Approval",
      "type": "event"
    },
    {
      "anonymous": false,
      "inputs": [
        {
          "indexed": true,
          "internalType": "address",
          "name": "owner",
          "type": "address"
        },
        {
          "indexed": true,
          "internalType": "address",
          "name": "operator",
          "type": "address"
        },
        {
          "indexed": false,
          "internalType": "bool",
          "name": "approved",
          "type": "bool"
        }
      ],
      "name": "ApprovalForAll",
      "type": "event"
    },
    {
      "anonymous": false,
      "inputs": [
        {
          "indexed": true,
          "internalType": "address",
          "name": "from",
          "type": "address"
        },
        {
          "indexed": true,
          "internalType": "address",
          "name": "to",
          "type": "address"
        },
        {
          "indexed": true,
          "internalType": "uint256",
          "name": "tokenId",
          "type": "uint256"
        }
      ],
      "name": "Transfer",
      "type": "event"
    },
    {
      "inputs": [
        {
          "internalType": "address",
          "name": "to",
          "type": "address"
        },
        {
          "internalType": "uint256",
          "name": "tokenId",
          "type": "uint256"
        }
      ],
      "name": "approve",
      "outputs": [],
      "stateMutability": "nonpayable",
      "type": "function"
    },
    {
      "inputs": [
        {
          "internalType": "address",
          "name": "owner",
          "type": "address"
        }
      ],
      "name": "balanceOf",
      "outputs": [
        {
          "internalType": "uint256",
          "name": "",
          "type": "uint256"
        }
      ],
      "stateMutability": "view",
      "type": "function"
    },
    {
      "inputs": [
        {
          "internalType": "uint256",
          "name": "tokenId",
          "type": "uint256"
        }
      ],
      "name": "getApproved",
      "outputs": [
        {
          "internalType": "address",
          "name": "",
          "type": "address"
        }
      ],
      "stateMutability": "view",
      "type": "function"
    },
    {
      "inputs": [
        {
          "internalType": "address",
          "name": "owner",
          "type": "address"
        },
        {
          "internalType": "address",
          "name": "operator",
          "type": "address"
        }
      ],
      "name": "isApprovedForAll",
      "outputs": [
        {
          "internalType": "bool",
          "name": "",
          "type": "bool"
        }
      ],
      "stateMutability": "view",
      "type": "function"
    },
    {
      "inputs": [],
      "name": "name",
      "outputs": [
        {
          "internalType": "string",
          "name": "",
          "type": "string"
        }
      ],
      "stateMutability": "view",
      "type": "function"
    },
    {
      "inputs": [
        {
          "internalType": "uint256",
          "name": "tokenId",
          "type": "uint256"
        }
      ],
      "name": "ownerOf",
      "outputs": [
        {
          "internalType": "address",
          "name": "",
          "type": "address"
        }
      ],
      "stateMutability": "view",
      "type": "function"
    },
    {
      "inputs": [
        {
          "internalType": "address",
          "name": "from",
          "type": "address"
        },
        {
          "internalType": "address",
          "name": "to",
          "type": "address"
        },
        {
          "internalType": "uint256",
          "name": "tokenId",
          "type": "uint256"
        }
      ],
      "name": "safeTransferFrom",
      "outputs": [],
      "stateMutability": "nonpayable",
      "type": "function"
    },
    {
      "inputs": [
        {
          "internalType": "address",
          "name": "from",
          "type": "address"
        },
        {
          "internalType": "address",
          "name": "to",
          "type": "address"
        },
        {
          "internalType": "uint256",
          "name": "tokenId",
          "type": "uint256"
        },
        {
          "internalType": "bytes",
          "name": "_data",
          "type": "bytes"
        }
      ],
      "name": "safeTransferFrom",
      "outputs": [],
      "stateMutability": "nonpayable",
      "type": "function"
    },
    {
      "inputs": [
        {
          "internalType": "address",
          "name": "operator",
          "type": "address"
        },
        {
          "internalType": "bool",
          "name": "approved",
          "type": "bool"
        }
      ],
      "name": "setApprovalForAll",
      "outputs": [],
      "stateMutability": "nonpayable",
      "type": "function"
    },
    {
      "inputs": [
        {
          "internalType": "bytes4",
          "name": "interfaceId",
          "type": "bytes4"
        }
      ],
      "name": "supportsInterface",
      "outputs": [
        {
          "internalType": "bool",
          "name": "",
          "type": "bool"
        }
      ],
      "stateMutability": "view",
      "type": "function"
    },
    {
      "inputs": [],
      "name": "symbol",
      "outputs": [
        {
          "internalType": "string",
          "name": "",
          "type": "string"
        }
      ],
      "stateMutability": "view",
      "type": "function"
    },
    {
      "inputs": [
        {
          "internalType": "uint256",
          "name": "",
          "type": "uint256"
        }
      ],
      "name": "tokenIdToPosterInfo",
      "outputs": [
        {
          "internalType": "uint256",
          "name": "showId",
          "type": "uint256"
        },
        {
          "internalType": "uint256",
          "name": "date",
          "type": "uint256"
        },
        {
          "internalType": "uint256",
          "name": "seatId",
          "type": "uint256"
        }
      ],
      "stateMutability": "view",
      "type": "function"
    },
    {
      "inputs": [
        {
          "internalType": "uint256",
          "name": "tokenId",
          "type": "uint256"
        }
      ],
      "name": "tokenURI",
      "outputs": [
        {
          "internalType": "string",
          "name": "",
          "type": "string"
        }
      ],
      "stateMutability": "view",
      "type": "function"
    },
    {
      "inputs": [
        {
          "internalType": "address",
          "name": "from",
          "type": "address"
        },
        {
          "internalType": "address",
          "name": "to",
          "type": "address"
        },
        {
          "internalType": "uint256",
          "name": "tokenId",
          "type": "uint256"
        }
      ],
      "name": "transferFrom",
      "outputs": [],
      "stateMutability": "nonpayable",
      "type": "function"
    }
  ],
  "bytecode": "0x60806040523480156200001157600080fd5b506040518060400160405280600681526020017f506f7374657200000000000000000000000000000000000000000000000000008152506040518060400160405280600381526020017f5054520000000000000000000000000000000000000000000000000000000000815250816000908051906020019062000096929190620000b8565b508060019080519060200190620000af929190620000b8565b505050620001cd565b828054620000c69062000197565b90600052602060002090601f016020900481019282620000ea576000855562000136565b82601f106200010557805160ff191683800117855562000136565b8280016001018555821562000136579182015b828111156200013557825182559160200191906001019062000118565b5b50905062000145919062000149565b5090565b5b80821115620001645760008160009055506001016200014a565b5090565b7f4e487b7100000000000000000000000000000000000000000000000000000000600052602260045260246000fd5b60006002820490506001821680620001b057607f821691505b60208210811415620001c757620001c662000168565b5b50919050565b61247a80620001dd6000396000f3fe608060405234801561001057600080fd5b50600436106100ea5760003560e01c806370a082311161008c578063b641f33b11610066578063b641f33b1461025b578063b88d4fde1461028d578063c87b56dd146102a9578063e985e9c5146102d9576100ea565b806370a08231146101f157806395d89b4114610221578063a22cb4651461023f576100ea565b8063095ea7b3116100c8578063095ea7b31461016d57806323b872dd1461018957806342842e0e146101a55780636352211e146101c1576100ea565b806301ffc9a7146100ef57806306fdde031461011f578063081812fc1461013d575b600080fd5b6101096004803603810190610104919061149e565b610309565b60405161011691906114e6565b60405180910390f35b6101276103eb565b604051610134919061159a565b60405180910390f35b610157600480360381019061015291906115f2565b61047d565b6040516101649190611660565b60405180910390f35b610187600480360381019061018291906116a7565b610502565b005b6101a3600480360381019061019e91906116e7565b61061a565b005b6101bf60048036038101906101ba91906116e7565b61067a565b005b6101db60048036038101906101d691906115f2565b61069a565b6040516101e89190611660565b60405180910390f35b61020b6004803603810190610206919061173a565b61074c565b6040516102189190611776565b60405180910390f35b610229610804565b604051610236919061159a565b60405180910390f35b610259600480360381019061025491906117bd565b610896565b005b610275600480360381019061027091906115f2565b610a17565b604051610284939291906117fd565b60405180910390f35b6102a760048036038101906102a29190611969565b610a41565b005b6102c360048036038101906102be91906115f2565b610aa3565b6040516102d0919061159a565b60405180910390f35b6102f360048036038101906102ee91906119ec565b610b4a565b60405161030091906114e6565b60405180910390f35b60007f80ac58cd000000000000000000000000000000000000000000000000000000007bffffffffffffffffffffffffffffffffffffffffffffffffffffffff1916827bffffffffffffffffffffffffffffffffffffffffffffffffffffffff191614806103d457507f5b5e139f000000000000000000000000000000000000000000000000000000007bffffffffffffffffffffffffffffffffffffffffffffffffffffffff1916827bffffffffffffffffffffffffffffffffffffffffffffffffffffffff1916145b806103e457506103e382610bde565b5b9050919050565b6060600080546103fa90611a5b565b80601f016020809104026020016040519081016040528092919081815260200182805461042690611a5b565b80156104735780601f1061044857610100808354040283529160200191610473565b820191906000526020600020905b81548152906001019060200180831161045657829003601f168201915b5050505050905090565b600061048882610c48565b6104c7576040517f08c379a00000000000000000000000000000000000000000000000000000000081526004016104be90611aff565b60405180910390fd5b6004600083815260200190815260200160002060009054906101000a900473ffffffffffffffffffffffffffffffffffffffff169050919050565b600061050d8261069a565b90508073ffffffffffffffffffffffffffffffffffffffff168373ffffffffffffffffffffffffffffffffffffffff16141561057e576040517f08c379a000000000000000000000000000000000000000000000000000000000815260040161057590611b91565b60405180910390fd5b8073ffffffffffffffffffffffffffffffffffffffff1661059d610cb4565b73ffffffffffffffffffffffffffffffffffffffff1614806105cc57506105cb816105c6610cb4565b610b4a565b5b61060b576040517f08c379a000000000000000000000000000000000000000000000000000000000815260040161060290611c23565b60405180910390fd5b6106158383610cbc565b505050565b61062b610625610cb4565b82610d75565b61066a576040517f08c379a000000000000000000000000000000000000000000000000000000000815260040161066190611cb5565b60405180910390fd5b610675838383610e53565b505050565b61069583838360405180602001604052806000815250610a41565b505050565b6000806002600084815260200190815260200160002060009054906101000a900473ffffffffffffffffffffffffffffffffffffffff169050600073ffffffffffffffffffffffffffffffffffffffff168173ffffffffffffffffffffffffffffffffffffffff161415610743576040517f08c379a000000000000000000000000000000000000000000000000000000000815260040161073a90611d47565b60405180910390fd5b80915050919050565b60008073ffffffffffffffffffffffffffffffffffffffff168273ffffffffffffffffffffffffffffffffffffffff1614156107bd576040517f08c379a00000000000000000000000000000000000000000000000000000000081526004016107b490611dd9565b60405180910390fd5b600360008373ffffffffffffffffffffffffffffffffffffffff1673ffffffffffffffffffffffffffffffffffffffff168152602001908152602001600020549050919050565b60606001805461081390611a5b565b80601f016020809104026020016040519081016040528092919081815260200182805461083f90611a5b565b801561088c5780601f106108615761010080835404028352916020019161088c565b820191906000526020600020905b81548152906001019060200180831161086f57829003601f168201915b5050505050905090565b61089e610cb4565b73ffffffffffffffffffffffffffffffffffffffff168273ffffffffffffffffffffffffffffffffffffffff16141561090c576040517f08c379a000000000000000000000000000000000000000000000000000000000815260040161090390611e45565b60405180910390fd5b8060056000610919610cb4565b73ffffffffffffffffffffffffffffffffffffffff1673ffffffffffffffffffffffffffffffffffffffff16815260200190815260200160002060008473ffffffffffffffffffffffffffffffffffffffff1673ffffffffffffffffffffffffffffffffffffffff16815260200190815260200160002060006101000a81548160ff0219169083151502179055508173ffffffffffffffffffffffffffffffffffffffff166109c6610cb4565b73ffffffffffffffffffffffffffffffffffffffff167f17307eab39ab6107e8899845ad3d59bd9653f200f220920489ca2b5937696c3183604051610a0b91906114e6565b60405180910390a35050565b60066020528060005260406000206000915090508060000154908060010154908060020154905083565b610a52610a4c610cb4565b83610d75565b610a91576040517f08c379a0000000000000000000000000000000000000000000000000000000008152600401610a8890611cb5565b60405180910390fd5b610a9d848484846110af565b50505050565b6060610aae82610c48565b610aed576040517f08c379a0000000000000000000000000000000000000000000000000000000008152600401610ae490611ed7565b60405180910390fd5b6000610af761110b565b90506000815111610b175760405180602001604052806000815250610b42565b80610b2184611122565b604051602001610b32929190611f33565b6040516020818303038152906040525b915050919050565b6000600560008473ffffffffffffffffffffffffffffffffffffffff1673ffffffffffffffffffffffffffffffffffffffff16815260200190815260200160002060008373ffffffffffffffffffffffffffffffffffffffff1673ffffffffffffffffffffffffffffffffffffffff16815260200190815260200160002060009054906101000a900460ff16905092915050565b60007f01ffc9a7000000000000000000000000000000000000000000000000000000007bffffffffffffffffffffffffffffffffffffffffffffffffffffffff1916827bffffffffffffffffffffffffffffffffffffffffffffffffffffffff1916149050919050565b60008073ffffffffffffffffffffffffffffffffffffffff166002600084815260200190815260200160002060009054906101000a900473ffffffffffffffffffffffffffffffffffffffff1673ffffffffffffffffffffffffffffffffffffffff1614159050919050565b600033905090565b816004600083815260200190815260200160002060006101000a81548173ffffffffffffffffffffffffffffffffffffffff021916908373ffffffffffffffffffffffffffffffffffffffff160217905550808273ffffffffffffffffffffffffffffffffffffffff16610d2f8361069a565b73ffffffffffffffffffffffffffffffffffffffff167f8c5be1e5ebec7d5bd14f71427d1e84f3dd0314c0f7b2291e5b200ac8c7c3b92560405160405180910390a45050565b6000610d8082610c48565b610dbf576040517f08c379a0000000000000000000000000000000000000000000000000000000008152600401610db690611fc9565b60405180910390fd5b6000610dca8361069a565b90508073ffffffffffffffffffffffffffffffffffffffff168473ffffffffffffffffffffffffffffffffffffffff161480610e3957508373ffffffffffffffffffffffffffffffffffffffff16610e218461047d565b73ffffffffffffffffffffffffffffffffffffffff16145b80610e4a5750610e498185610b4a565b5b91505092915050565b8273ffffffffffffffffffffffffffffffffffffffff16610e738261069a565b73ffffffffffffffffffffffffffffffffffffffff1614610ec9576040517f08c379a0000000000000000000000000000000000000000000000000000000008152600401610ec09061205b565b60405180910390fd5b600073ffffffffffffffffffffffffffffffffffffffff168273ffffffffffffffffffffffffffffffffffffffff161415610f39576040517f08c379a0000000000000000000000000000000000000000000000000000000008152600401610f30906120ed565b60405180910390fd5b610f44838383611283565b610f4f600082610cbc565b6001600360008573ffffffffffffffffffffffffffffffffffffffff1673ffffffffffffffffffffffffffffffffffffffff1681526020019081526020016000206000828254610f9f919061213c565b925050819055506001600360008473ffffffffffffffffffffffffffffffffffffffff1673ffffffffffffffffffffffffffffffffffffffff1681526020019081526020016000206000828254610ff69190612170565b92505081905550816002600083815260200190815260200160002060006101000a81548173ffffffffffffffffffffffffffffffffffffffff021916908373ffffffffffffffffffffffffffffffffffffffff160217905550808273ffffffffffffffffffffffffffffffffffffffff168473ffffffffffffffffffffffffffffffffffffffff167fddf252ad1be2c89b69c2b068fc378daa952ba7f163c4a11628f55a4df523b3ef60405160405180910390a4505050565b6110ba848484610e53565b6110c684848484611288565b611105576040517f08c379a00000000000000000000000000000000000000000000000000000000081526004016110fc90612238565b60405180910390fd5b50505050565b606060405180602001604052806000815250905090565b6060600082141561116a576040518060400160405280600181526020017f3000000000000000000000000000000000000000000000000000000000000000815250905061127e565b600082905060005b6000821461119c57808061118590612258565b915050600a8261119591906122d0565b9150611172565b60008167ffffffffffffffff8111156111b8576111b761183e565b5b6040519080825280601f01601f1916602001820160405280156111ea5781602001600182028036833780820191505090505b5090505b6000851461127757600182611203919061213c565b9150600a856112129190612301565b603061121e9190612170565b60f81b81838151811061123457611233612332565b5b60200101907effffffffffffffffffffffffffffffffffffffffffffffffffffffffffffff1916908160001a905350600a8561127091906122d0565b94506111ee565b8093505050505b919050565b505050565b60006112a98473ffffffffffffffffffffffffffffffffffffffff1661141f565b15611412578373ffffffffffffffffffffffffffffffffffffffff1663150b7a026112d2610cb4565b8786866040518563ffffffff1660e01b81526004016112f494939291906123b6565b602060405180830381600087803b15801561130e57600080fd5b505af192505050801561133f57506040513d601f19601f8201168201806040525081019061133c9190612417565b60015b6113c2573d806000811461136f576040519150601f19603f3d011682016040523d82523d6000602084013e611374565b606091505b506000815114156113ba576040517f08c379a00000000000000000000000000000000000000000000000000000000081526004016113b190612238565b60405180910390fd5b805181602001fd5b63150b7a0260e01b7bffffffffffffffffffffffffffffffffffffffffffffffffffffffff1916817bffffffffffffffffffffffffffffffffffffffffffffffffffffffff191614915050611417565b600190505b949350505050565b600080823b905060008111915050919050565b6000604051905090565b600080fd5b600080fd5b60007fffffffff0000000000000000000000000000000000000000000000000000000082169050919050565b61147b81611446565b811461148657600080fd5b50565b60008135905061149881611472565b92915050565b6000602082840312156114b4576114b361143c565b5b60006114c284828501611489565b91505092915050565b60008115159050919050565b6114e0816114cb565b82525050565b60006020820190506114fb60008301846114d7565b92915050565b600081519050919050565b600082825260208201905092915050565b60005b8381101561153b578082015181840152602081019050611520565b8381111561154a576000848401525b50505050565b6000601f19601f8301169050919050565b600061156c82611501565b611576818561150c565b935061158681856020860161151d565b61158f81611550565b840191505092915050565b600060208201905081810360008301526115b48184611561565b905092915050565b6000819050919050565b6115cf816115bc565b81146115da57600080fd5b50565b6000813590506115ec816115c6565b92915050565b6000602082840312156116085761160761143c565b5b6000611616848285016115dd565b91505092915050565b600073ffffffffffffffffffffffffffffffffffffffff82169050919050565b600061164a8261161f565b9050919050565b61165a8161163f565b82525050565b60006020820190506116756000830184611651565b92915050565b6116848161163f565b811461168f57600080fd5b50565b6000813590506116a18161167b565b92915050565b600080604083850312156116be576116bd61143c565b5b60006116cc85828601611692565b92505060206116dd858286016115dd565b9150509250929050565b600080600060608486031215611700576116ff61143c565b5b600061170e86828701611692565b935050602061171f86828701611692565b9250506040611730868287016115dd565b9150509250925092565b6000602082840312156117505761174f61143c565b5b600061175e84828501611692565b91505092915050565b611770816115bc565b82525050565b600060208201905061178b6000830184611767565b92915050565b61179a816114cb565b81146117a557600080fd5b50565b6000813590506117b781611791565b92915050565b600080604083850312156117d4576117d361143c565b5b60006117e285828601611692565b92505060206117f3858286016117a8565b9150509250929050565b60006060820190506118126000830186611767565b61181f6020830185611767565b61182c6040830184611767565b949350505050565b600080fd5b600080fd5b7f4e487b7100000000000000000000000000000000000000000000000000000000600052604160045260246000fd5b61187682611550565b810181811067ffffffffffffffff821117156118955761189461183e565b5b80604052505050565b60006118a8611432565b90506118b4828261186d565b919050565b600067ffffffffffffffff8211156118d4576118d361183e565b5b6118dd82611550565b9050602081019050919050565b82818337600083830152505050565b600061190c611907846118b9565b61189e565b90508281526020810184848401111561192857611927611839565b5b6119338482856118ea565b509392505050565b600082601f8301126119505761194f611834565b5b81356119608482602086016118f9565b91505092915050565b600080600080608085870312156119835761198261143c565b5b600061199187828801611692565b94505060206119a287828801611692565b93505060406119b3878288016115dd565b925050606085013567ffffffffffffffff8111156119d4576119d3611441565b5b6119e08782880161193b565b91505092959194509250565b60008060408385031215611a0357611a0261143c565b5b6000611a1185828601611692565b9250506020611a2285828601611692565b9150509250929050565b7f4e487b7100000000000000000000000000000000000000000000000000000000600052602260045260246000fd5b60006002820490506001821680611a7357607f821691505b60208210811415611a8757611a86611a2c565b5b50919050565b7f4552433732313a20617070726f76656420717565727920666f72206e6f6e657860008201527f697374656e7420746f6b656e0000000000000000000000000000000000000000602082015250565b6000611ae9602c8361150c565b9150611af482611a8d565b604082019050919050565b60006020820190508181036000830152611b1881611adc565b9050919050565b7f4552433732313a20617070726f76616c20746f2063757272656e74206f776e6560008201527f7200000000000000000000000000000000000000000000000000000000000000602082015250565b6000611b7b60218361150c565b9150611b8682611b1f565b604082019050919050565b60006020820190508181036000830152611baa81611b6e565b9050919050565b7f4552433732313a20617070726f76652063616c6c6572206973206e6f74206f7760008201527f6e6572206e6f7220617070726f76656420666f7220616c6c0000000000000000602082015250565b6000611c0d60388361150c565b9150611c1882611bb1565b604082019050919050565b60006020820190508181036000830152611c3c81611c00565b9050919050565b7f4552433732313a207472616e736665722063616c6c6572206973206e6f74206f60008201527f776e6572206e6f7220617070726f766564000000000000000000000000000000602082015250565b6000611c9f60318361150c565b9150611caa82611c43565b604082019050919050565b60006020820190508181036000830152611cce81611c92565b9050919050565b7f4552433732313a206f776e657220717565727920666f72206e6f6e657869737460008201527f656e7420746f6b656e0000000000000000000000000000000000000000000000602082015250565b6000611d3160298361150c565b9150611d3c82611cd5565b604082019050919050565b60006020820190508181036000830152611d6081611d24565b9050919050565b7f4552433732313a2062616c616e636520717565727920666f7220746865207a6560008201527f726f206164647265737300000000000000000000000000000000000000000000602082015250565b6000611dc3602a8361150c565b9150611dce82611d67565b604082019050919050565b60006020820190508181036000830152611df281611db6565b9050919050565b7f4552433732313a20617070726f766520746f2063616c6c657200000000000000600082015250565b6000611e2f60198361150c565b9150611e3a82611df9565b602082019050919050565b60006020820190508181036000830152611e5e81611e22565b9050919050565b7f4552433732314d657461646174613a2055524920717565727920666f72206e6f60008201527f6e6578697374656e7420746f6b656e0000000000000000000000000000000000602082015250565b6000611ec1602f8361150c565b9150611ecc82611e65565b604082019050919050565b60006020820190508181036000830152611ef081611eb4565b9050919050565b600081905092915050565b6000611f0d82611501565b611f178185611ef7565b9350611f2781856020860161151d565b80840191505092915050565b6000611f3f8285611f02565b9150611f4b8284611f02565b91508190509392505050565b7f4552433732313a206f70657261746f7220717565727920666f72206e6f6e657860008201527f697374656e7420746f6b656e0000000000000000000000000000000000000000602082015250565b6000611fb3602c8361150c565b9150611fbe82611f57565b604082019050919050565b60006020820190508181036000830152611fe281611fa6565b9050919050565b7f4552433732313a207472616e73666572206f6620746f6b656e2074686174206960008201527f73206e6f74206f776e0000000000000000000000000000000000000000000000602082015250565b600061204560298361150c565b915061205082611fe9565b604082019050919050565b6000602082019050818103600083015261207481612038565b9050919050565b7f4552433732313a207472616e7366657220746f20746865207a65726f2061646460008201527f7265737300000000000000000000000000000000000000000000000000000000602082015250565b60006120d760248361150c565b91506120e28261207b565b604082019050919050565b60006020820190508181036000830152612106816120ca565b9050919050565b7f4e487b7100000000000000000000000000000000000000000000000000000000600052601160045260246000fd5b6000612147826115bc565b9150612152836115bc565b9250828210156121655761216461210d565b5b828203905092915050565b600061217b826115bc565b9150612186836115bc565b9250827fffffffffffffffffffffffffffffffffffffffffffffffffffffffffffffffff038211156121bb576121ba61210d565b5b828201905092915050565b7f4552433732313a207472616e7366657220746f206e6f6e20455243373231526560008201527f63656976657220696d706c656d656e7465720000000000000000000000000000602082015250565b600061222260328361150c565b915061222d826121c6565b604082019050919050565b6000602082019050818103600083015261225181612215565b9050919050565b6000612263826115bc565b91507fffffffffffffffffffffffffffffffffffffffffffffffffffffffffffffffff8214156122965761229561210d565b5b600182019050919050565b7f4e487b7100000000000000000000000000000000000000000000000000000000600052601260045260246000fd5b60006122db826115bc565b91506122e6836115bc565b9250826122f6576122f56122a1565b5b828204905092915050565b600061230c826115bc565b9150612317836115bc565b925082612327576123266122a1565b5b828206905092915050565b7f4e487b7100000000000000000000000000000000000000000000000000000000600052603260045260246000fd5b600081519050919050565b600082825260208201905092915050565b600061238882612361565b612392818561236c565b93506123a281856020860161151d565b6123ab81611550565b840191505092915050565b60006080820190506123cb6000830187611651565b6123d86020830186611651565b6123e56040830185611767565b81810360608301526123f7818461237d565b905095945050505050565b60008151905061241181611472565b92915050565b60006020828403121561242d5761242c61143c565b5b600061243b84828501612402565b9150509291505056fea264697066735822122098fc66c75100672abfbe1b4a86725cb81e57b20799da481152521bfb6e7d68f364736f6c63430008090033",
  "immutableReferences": {},
  "source": "// SPDX-License-Identifier: MIT\npragma solidity ^0.8.0;\n\nimport \"@openzeppelin/contracts/token/ERC721/ERC721.sol\";\n\ncontract Poster is ERC721 {\n  constructor() ERC721(\"Poster\", \"PTR\") {}\n\n  struct PosterInfo {\n    uint showId;\n    uint date;\n    uint seatId;\n  }\n\n  mapping(uint256 => PosterInfo) public tokenIdToPosterInfo;\n}\n",
  "sourcePath": "/Users/mac13/Documents/github-saragarci/ticket-booking-system/contracts/Poster.sol",
  "compiler": {
    "name": "solc",
    "version": "0.8.9+commit.e5eed63a.Emscripten.clang"
  },
  "schemaVersion": "3.4.1",
  "updatedAt": "2021-11-08T18:18:47.123Z",
  "devdoc": {
    "kind": "dev",
    "methods": {
      "approve(address,uint256)": {
        "details": "See {IERC721-approve}."
      },
      "balanceOf(address)": {
        "details": "See {IERC721-balanceOf}."
      },
      "getApproved(uint256)": {
        "details": "See {IERC721-getApproved}."
      },
      "isApprovedForAll(address,address)": {
        "details": "See {IERC721-isApprovedForAll}."
      },
      "name()": {
        "details": "See {IERC721Metadata-name}."
      },
      "ownerOf(uint256)": {
        "details": "See {IERC721-ownerOf}."
      },
      "safeTransferFrom(address,address,uint256)": {
        "details": "See {IERC721-safeTransferFrom}."
      },
      "safeTransferFrom(address,address,uint256,bytes)": {
        "details": "See {IERC721-safeTransferFrom}."
      },
      "setApprovalForAll(address,bool)": {
        "details": "See {IERC721-setApprovalForAll}."
      },
      "supportsInterface(bytes4)": {
        "details": "See {IERC165-supportsInterface}."
      },
      "symbol()": {
        "details": "See {IERC721Metadata-symbol}."
      },
      "tokenURI(uint256)": {
        "details": "See {IERC721Metadata-tokenURI}."
      },
      "transferFrom(address,address,uint256)": {
        "details": "See {IERC721-transferFrom}."
      }
    },
    "version": 1
  },
  "userdoc": {
    "kind": "user",
    "methods": {},
    "version": 1
  }
}